{
    "contractName": "BAToken",
    "abi": [
        {
            "inputs": [],
            "stateMutability": "nonpayable",
            "type": "constructor"
        },
        {
            "inputs": [],
            "name": "PRICE",
            "outputs": [
                {
                    "internalType": "uint256",
                    "name": "",
                    "type": "uint256"
                }
            ],
            "stateMutability": "view",
            "type": "function"
        },
        {
            "inputs": [
                {
                    "internalType": "address",
                    "name": "",
                    "type": "address"
                }
            ],
            "name": "balance",
            "outputs": [
                {
                    "internalType": "uint256",
                    "name": "",
                    "type": "uint256"
                }
            ],
            "stateMutability": "view",
            "type": "function"
        },
        {
            "inputs": [],
            "name": "mint",
            "outputs": [],
            "stateMutability": "payable",
            "type": "function"
        },
        {
            "inputs": [],
            "name": "minter",
            "outputs": [
                {
                    "internalType": "address",
                    "name": "",
                    "type": "address"
                }
            ],
            "stateMutability": "view",
            "type": "function"
        },
        {
            "inputs": [],
            "name": "terminate",
            "outputs": [],
            "stateMutability": "nonpayable",
            "type": "function"
        },
        {
            "inputs": [
                {
                    "internalType": "uint256",
                    "name": "pocID",
                    "type": "uint256"
                },
                {
                    "internalType": "uint256",
                    "name": "tokens",
                    "type": "uint256"
                }
            ],
            "name": "verify",
            "outputs": [],
            "stateMutability": "nonpayable",
            "type": "function"
        }
    ],
    "bytecode": "608060405234801561001057600080fd5b50600080546001600160a01b0319163317815560405160029061003c9062444f5360e81b815260030190565b908152604051908190036020019020805460ff191660018360038111156100655761006561014e565b0217905550600160026040516100869064131bd8d85b60da1b815260050190565b908152604051908190036020019020805460ff191660018360038111156100af576100af61014e565b02179055506002806040516100d0906552656d6f746560d01b815260060190565b908152604051908190036020019020805460ff191660018360038111156100f9576100f961014e565b02179055506003600260405161011b906505765626170760d41b815260060190565b908152604051908190036020019020805460ff191660018360038111156101445761014461014e565b0217905550610164565b634e487b7160e01b600052602160045260246000fd5b6102f7806101736000396000f3fe6080604052600436106100555760003560e01c8063075461721461005a5780630c08bf88146100975780631249c58b146100ae57806341161b10146100b65780638d859f3e146100d5578063e3d670d7146100fe575b600080fd5b34801561006657600080fd5b5060005461007a906001600160a01b031681565b6040516001600160a01b0390911681526020015b60405180910390f35b3480156100a357600080fd5b506100ac61012b565b005b6100ac610198565b3480156100c257600080fd5b506100ac6100d1366004610226565b5050565b3480156100e157600080fd5b506100f066071afd498d000081565b60405190815260200161008e565b34801561010a57600080fd5b506100f0610119366004610248565b60016020526000908152604090205481565b6000546001600160a01b0316331461018a5760405162461bcd60e51b815260206004820181905260248201527f596f752063616e2774207465726d696e6174652074686520636f6e747261637460448201526064015b60405180910390fd5b6000546001600160a01b0316ff5b66071afd498d00003410156101ef5760405162461bcd60e51b815260206004820152601c60248201527f4e6f7420656e6f7567682076616c756520666f72206120746f6b656e000000006044820152606401610181565b61020066071afd498d000034610278565b336000908152600160205260408120805490919061021f90849061029a565b9091555050565b6000806040838503121561023957600080fd5b50508035926020909101359150565b60006020828403121561025a57600080fd5b81356001600160a01b038116811461027157600080fd5b9392505050565b60008261029557634e487b7160e01b600052601260045260246000fd5b500490565b808201808211156102bb57634e487b7160e01b600052601160045260246000fd5b9291505056fea264697066735822122075c0d1a105302f7d8839449101ba58bf50dcae0121c1c4bd05508aa7bedf93a564736f6c63430008110033",
    "sourcePath": "/home/edoardo/Documents/projects/batman/contracts/BAToken.sol",
    "compiler": {
        "name": "solc",
        "version": "0.8.17+commit.8df45f5f"
    },
    "functionHashes": {
        "PRICE()": "8d859f3e",
        "balance(address)": "e3d670d7",
        "mint()": "1249c58b",
        "minter()": "07546172",
        "terminate()": "0c08bf88",
        "verify(uint256,uint256)": "41161b10"
    },
    "gasEstimates": {
        "creation": {
            "codeDepositCost": "151800",
            "executionCost": "121987",
            "totalCost": "273787"
        },
        "external": {
            "PRICE()": "261",
            "balance(address)": "2572",
            "mint()": "24597",
            "minter()": "2304",
            "terminate()": "31996",
            "verify(uint256,uint256)": "280"
        }
    }
}